{
  "_format": "hh-sol-artifact-1",
  "contractName": "PixiMint",
  "sourceName": "contracts/PixiMint.sol",
  "abi": [
    {
      "inputs": [
        {
          "internalType": "uint256",
          "name": "numTiles",
          "type": "uint256"
        }
      ],
      "stateMutability": "nonpayable",
      "type": "constructor"
    },
    {
      "anonymous": false,
      "inputs": [
        {
          "indexed": true,
          "internalType": "address",
          "name": "owner",
          "type": "address"
        },
        {
          "indexed": true,
          "internalType": "address",
          "name": "approved",
          "type": "address"
        },
        {
          "indexed": true,
          "internalType": "uint256",
          "name": "tokenId",
          "type": "uint256"
        }
      ],
      "name": "Approval",
      "type": "event"
    },
    {
      "anonymous": false,
      "inputs": [
        {
          "indexed": true,
          "internalType": "address",
          "name": "owner",
          "type": "address"
        },
        {
          "indexed": true,
          "internalType": "address",
          "name": "operator",
          "type": "address"
        },
        {
          "indexed": false,
          "internalType": "bool",
          "name": "approved",
          "type": "bool"
        }
      ],
      "name": "ApprovalForAll",
      "type": "event"
    },
    {
      "anonymous": false,
      "inputs": [
        {
          "indexed": true,
          "internalType": "address",
          "name": "previousOwner",
          "type": "address"
        },
        {
          "indexed": true,
          "internalType": "address",
          "name": "newOwner",
          "type": "address"
        }
      ],
      "name": "OwnershipTransferred",
      "type": "event"
    },
    {
      "anonymous": false,
      "inputs": [
        {
          "indexed": false,
          "internalType": "uint256",
          "name": "tokenId",
          "type": "uint256"
        },
        {
          "indexed": false,
          "internalType": "uint256",
          "name": "color",
          "type": "uint256"
        }
      ],
      "name": "PixelColorChanged",
      "type": "event"
    },
    {
      "anonymous": false,
      "inputs": [
        {
          "indexed": false,
          "internalType": "address",
          "name": "sender",
          "type": "address"
        },
        {
          "indexed": false,
          "internalType": "uint256",
          "name": "tokenId",
          "type": "uint256"
        },
        {
          "components": [
            {
              "internalType": "address",
              "name": "owner",
              "type": "address"
            },
            {
              "internalType": "uint256",
              "name": "color",
              "type": "uint256"
            },
            {
              "internalType": "uint256",
              "name": "tokenId",
              "type": "uint256"
            }
          ],
          "indexed": false,
          "internalType": "struct PixiMint.Pixel[]",
          "name": "board",
          "type": "tuple[]"
        }
      ],
      "name": "PixelMinted",
      "type": "event"
    },
    {
      "anonymous": false,
      "inputs": [
        {
          "indexed": true,
          "internalType": "address",
          "name": "from",
          "type": "address"
        },
        {
          "indexed": true,
          "internalType": "address",
          "name": "to",
          "type": "address"
        },
        {
          "indexed": true,
          "internalType": "uint256",
          "name": "tokenId",
          "type": "uint256"
        }
      ],
      "name": "Transfer",
      "type": "event"
    },
    {
      "inputs": [
        {
          "internalType": "address",
          "name": "to",
          "type": "address"
        },
        {
          "internalType": "uint256",
          "name": "tokenId",
          "type": "uint256"
        }
      ],
      "name": "approve",
      "outputs": [],
      "stateMutability": "nonpayable",
      "type": "function"
    },
    {
      "inputs": [
        {
          "internalType": "address",
          "name": "owner",
          "type": "address"
        }
      ],
      "name": "balanceOf",
      "outputs": [
        {
          "internalType": "uint256",
          "name": "",
          "type": "uint256"
        }
      ],
      "stateMutability": "view",
      "type": "function"
    },
    {
      "inputs": [
        {
          "internalType": "uint256",
          "name": "color",
          "type": "uint256"
        },
        {
          "internalType": "uint256",
          "name": "tokenId",
          "type": "uint256"
        }
      ],
      "name": "colorPixi",
      "outputs": [],
      "stateMutability": "nonpayable",
      "type": "function"
    },
    {
      "inputs": [
        {
          "internalType": "uint256",
          "name": "tokenId",
          "type": "uint256"
        }
      ],
      "name": "getApproved",
      "outputs": [
        {
          "internalType": "address",
          "name": "",
          "type": "address"
        }
      ],
      "stateMutability": "view",
      "type": "function"
    },
    {
      "inputs": [],
      "name": "getBoard",
      "outputs": [
        {
          "components": [
            {
              "internalType": "address",
              "name": "owner",
              "type": "address"
            },
            {
              "internalType": "uint256",
              "name": "color",
              "type": "uint256"
            },
            {
              "internalType": "uint256",
              "name": "tokenId",
              "type": "uint256"
            }
          ],
          "internalType": "struct PixiMint.Pixel[]",
          "name": "",
          "type": "tuple[]"
        }
      ],
      "stateMutability": "view",
      "type": "function"
    },
    {
      "inputs": [
        {
          "internalType": "address",
          "name": "owner",
          "type": "address"
        },
        {
          "internalType": "address",
          "name": "operator",
          "type": "address"
        }
      ],
      "name": "isApprovedForAll",
      "outputs": [
        {
          "internalType": "bool",
          "name": "",
          "type": "bool"
        }
      ],
      "stateMutability": "view",
      "type": "function"
    },
    {
      "inputs": [
        {
          "internalType": "uint256",
          "name": "tokenId",
          "type": "uint256"
        }
      ],
      "name": "mintPixi",
      "outputs": [],
      "stateMutability": "nonpayable",
      "type": "function"
    },
    {
      "inputs": [],
      "name": "name",
      "outputs": [
        {
          "internalType": "string",
          "name": "",
          "type": "string"
        }
      ],
      "stateMutability": "view",
      "type": "function"
    },
    {
      "inputs": [],
      "name": "owner",
      "outputs": [
        {
          "internalType": "address",
          "name": "",
          "type": "address"
        }
      ],
      "stateMutability": "view",
      "type": "function"
    },
    {
      "inputs": [
        {
          "internalType": "uint256",
          "name": "tokenId",
          "type": "uint256"
        }
      ],
      "name": "ownerOf",
      "outputs": [
        {
          "internalType": "address",
          "name": "",
          "type": "address"
        }
      ],
      "stateMutability": "view",
      "type": "function"
    },
    {
      "inputs": [],
      "name": "renounceOwnership",
      "outputs": [],
      "stateMutability": "nonpayable",
      "type": "function"
    },
    {
      "inputs": [
        {
          "internalType": "address",
          "name": "from",
          "type": "address"
        },
        {
          "internalType": "address",
          "name": "to",
          "type": "address"
        },
        {
          "internalType": "uint256",
          "name": "tokenId",
          "type": "uint256"
        }
      ],
      "name": "safeTransferFrom",
      "outputs": [],
      "stateMutability": "nonpayable",
      "type": "function"
    },
    {
      "inputs": [
        {
          "internalType": "address",
          "name": "from",
          "type": "address"
        },
        {
          "internalType": "address",
          "name": "to",
          "type": "address"
        },
        {
          "internalType": "uint256",
          "name": "tokenId",
          "type": "uint256"
        },
        {
          "internalType": "bytes",
          "name": "_data",
          "type": "bytes"
        }
      ],
      "name": "safeTransferFrom",
      "outputs": [],
      "stateMutability": "nonpayable",
      "type": "function"
    },
    {
      "inputs": [
        {
          "internalType": "address",
          "name": "operator",
          "type": "address"
        },
        {
          "internalType": "bool",
          "name": "approved",
          "type": "bool"
        }
      ],
      "name": "setApprovalForAll",
      "outputs": [],
      "stateMutability": "nonpayable",
      "type": "function"
    },
    {
      "inputs": [
        {
          "internalType": "string",
          "name": "url",
          "type": "string"
        }
      ],
      "name": "setBaseURI",
      "outputs": [],
      "stateMutability": "nonpayable",
      "type": "function"
    },
    {
      "inputs": [
        {
          "internalType": "bytes4",
          "name": "interfaceId",
          "type": "bytes4"
        }
      ],
      "name": "supportsInterface",
      "outputs": [
        {
          "internalType": "bool",
          "name": "",
          "type": "bool"
        }
      ],
      "stateMutability": "view",
      "type": "function"
    },
    {
      "inputs": [],
      "name": "symbol",
      "outputs": [
        {
          "internalType": "string",
          "name": "",
          "type": "string"
        }
      ],
      "stateMutability": "view",
      "type": "function"
    },
    {
      "inputs": [
        {
          "internalType": "uint256",
          "name": "",
          "type": "uint256"
        }
      ],
      "name": "tokenColors",
      "outputs": [
        {
          "internalType": "uint256",
          "name": "",
          "type": "uint256"
        }
      ],
      "stateMutability": "view",
      "type": "function"
    },
    {
      "inputs": [
        {
          "internalType": "uint256",
          "name": "_tokenId",
          "type": "uint256"
        }
      ],
      "name": "tokenURI",
      "outputs": [
        {
          "internalType": "string",
          "name": "",
          "type": "string"
        }
      ],
      "stateMutability": "view",
      "type": "function"
    },
    {
      "inputs": [
        {
          "internalType": "address",
          "name": "from",
          "type": "address"
        },
        {
          "internalType": "address",
          "name": "to",
          "type": "address"
        },
        {
          "internalType": "uint256",
          "name": "tokenId",
          "type": "uint256"
        }
      ],
      "name": "transferFrom",
      "outputs": [],
      "stateMutability": "nonpayable",
      "type": "function"
    },
    {
      "inputs": [
        {
          "internalType": "address",
          "name": "newOwner",
          "type": "address"
        }
      ],
      "name": "transferOwnership",
      "outputs": [],
      "stateMutability": "nonpayable",
      "type": "function"
    }
  ],
  "bytecode": "0x60806040523480156200001157600080fd5b50604051620042e5380380620042e5833981810160405281019062000037919062000325565b6040518060400160405280600881526020017f506978694d696e740000000000000000000000000000000000000000000000008152506040518060400160405280600581526020017f50584d4e540000000000000000000000000000000000000000000000000000008152508160009080519060200190620000bb9291906200025e565b508060019080519060200190620000d49291906200025e565b505050620000f7620000eb6200019060201b60201c565b6200019860201b60201c565b60005b818110156200013357600060096000838152602001908152602001600020819055506001816200012b919062000351565b9050620000fa565b50806007819055506040518060400160405280601481526020017f68747470733a2f2f706978696d696e742e636f6d00000000000000000000000081525060089080519060200190620001889291906200025e565b505062000466565b600033905090565b6000600660009054906101000a900473ffffffffffffffffffffffffffffffffffffffff16905081600660006101000a81548173ffffffffffffffffffffffffffffffffffffffff021916908373ffffffffffffffffffffffffffffffffffffffff1602179055508173ffffffffffffffffffffffffffffffffffffffff168173ffffffffffffffffffffffffffffffffffffffff167f8be0079c531659141344cd1fd0a4f28419497f9722a3daafe3b4186f6b6457e060405160405180910390a35050565b8280546200026c90620003b8565b90600052602060002090601f016020900481019282620002905760008555620002dc565b82601f10620002ab57805160ff1916838001178555620002dc565b82800160010185558215620002dc579182015b82811115620002db578251825591602001919060010190620002be565b5b509050620002eb9190620002ef565b5090565b5b808211156200030a576000816000905550600101620002f0565b5090565b6000815190506200031f816200044c565b92915050565b6000602082840312156200033857600080fd5b600062000348848285016200030e565b91505092915050565b60006200035e82620003ae565b91506200036b83620003ae565b9250827fffffffffffffffffffffffffffffffffffffffffffffffffffffffffffffffff03821115620003a357620003a2620003ee565b5b828201905092915050565b6000819050919050565b60006002820490506001821680620003d157607f821691505b60208210811415620003e857620003e76200041d565b5b50919050565b7f4e487b7100000000000000000000000000000000000000000000000000000000600052601160045260246000fd5b7f4e487b7100000000000000000000000000000000000000000000000000000000600052602260045260246000fd5b6200045781620003ae565b81146200046357600080fd5b50565b613e6f80620004766000396000f3fe608060405234801561001057600080fd5b50600436106101375760003560e01c80636352211e116100b8578063a22cb4651161007c578063a22cb4651461033a578063b88d4fde14610356578063c87b56dd14610372578063c95b66c1146103a2578063e985e9c5146103be578063f2fde38b146103ee57610137565b80636352211e1461029457806370a08231146102c4578063715018a6146102f45780638da5cb5b146102fe57806395d89b411461031c57610137565b80633264a34b116100ff5780633264a34b146101f2578063336193201461021057806342842e0e1461022c57806350dc17221461024857806355f804b31461027857610137565b806301ffc9a71461013c57806306fdde031461016c578063081812fc1461018a578063095ea7b3146101ba57806323b872dd146101d6575b600080fd5b610156600480360381019061015191906124f7565b61040a565b604051610163919061364c565b60405180910390f35b6101746104ec565b6040516101819190613667565b60405180910390f35b6101a4600480360381019061019f919061258a565b61057e565b6040516101b19190613585565b60405180910390f35b6101d460048036038101906101cf91906124bb565b610603565b005b6101f060048036038101906101eb91906123b5565b61071b565b005b6101fa61077b565b604051610207919061362a565b60405180910390f35b61022a6004803603810190610225919061258a565b6108d1565b005b610246600480360381019061024191906123b5565b61096a565b005b610262600480360381019061025d919061258a565b61098a565b60405161026f91906138c9565b60405180910390f35b610292600480360381019061028d9190612549565b6109a2565b005b6102ae60048036038101906102a9919061258a565b610a38565b6040516102bb9190613585565b60405180910390f35b6102de60048036038101906102d99190612350565b610aea565b6040516102eb91906138c9565b60405180910390f35b6102fc610ba2565b005b610306610c2a565b6040516103139190613585565b60405180910390f35b610324610c54565b6040516103319190613667565b60405180910390f35b610354600480360381019061034f919061247f565b610ce6565b005b610370600480360381019061036b9190612404565b610e67565b005b61038c6004803603810190610387919061258a565b610ec9565b6040516103999190613667565b60405180910390f35b6103bc60048036038101906103b791906125b3565b610f8c565b005b6103d860048036038101906103d39190612379565b61109c565b6040516103e5919061364c565b60405180910390f35b61040860048036038101906104039190612350565b611130565b005b60007f80ac58cd000000000000000000000000000000000000000000000000000000007bffffffffffffffffffffffffffffffffffffffffffffffffffffffff1916827bffffffffffffffffffffffffffffffffffffffffffffffffffffffff191614806104d557507f5b5e139f000000000000000000000000000000000000000000000000000000007bffffffffffffffffffffffffffffffffffffffffffffffffffffffff1916827bffffffffffffffffffffffffffffffffffffffffffffffffffffffff1916145b806104e557506104e482611228565b5b9050919050565b6060600080546104fb90613c24565b80601f016020809104026020016040519081016040528092919081815260200182805461052790613c24565b80156105745780601f1061054957610100808354040283529160200191610574565b820191906000526020600020905b81548152906001019060200180831161055757829003601f168201915b5050505050905090565b600061058982611292565b6105c8576040517f08c379a00000000000000000000000000000000000000000000000000000000081526004016105bf906137c9565b60405180910390fd5b6004600083815260200190815260200160002060009054906101000a900473ffffffffffffffffffffffffffffffffffffffff169050919050565b600061060e82610a38565b90508073ffffffffffffffffffffffffffffffffffffffff168373ffffffffffffffffffffffffffffffffffffffff16141561067f576040517f08c379a000000000000000000000000000000000000000000000000000000000815260040161067690613849565b60405180910390fd5b8073ffffffffffffffffffffffffffffffffffffffff1661069e6112fe565b73ffffffffffffffffffffffffffffffffffffffff1614806106cd57506106cc816106c76112fe565b61109c565b5b61070c576040517f08c379a000000000000000000000000000000000000000000000000000000000815260040161070390613749565b60405180910390fd5b6107168383611306565b505050565b61072c6107266112fe565b826113bf565b61076b576040517f08c379a000000000000000000000000000000000000000000000000000000000815260040161076290613869565b60405180910390fd5b61077683838361149d565b505050565b6060600060075467ffffffffffffffff8111156107c1577f4e487b7100000000000000000000000000000000000000000000000000000000600052604160045260246000fd5b6040519080825280602002602001820160405280156107fa57816020015b6107e761213d565b8152602001906001900390816107df5790505b50905060005b6007548110156108c957600061081582611292565b156108265761082382610a38565b90505b600060405180606001604052808373ffffffffffffffffffffffffffffffffffffffff16815260200160096000868152602001908152602001600020548152602001848152509050808484815181106108a8577f4e487b7100000000000000000000000000000000000000000000000000000000600052603260045260246000fd5b602002602001018190525050506001816108c29190613a2f565b9050610800565b508091505090565b6007548110610915576040517f08c379a000000000000000000000000000000000000000000000000000000000815260040161090c90613889565b60405180910390fd5b61091f33826116f9565b600061092961077b565b90507f63299682c8f36e5ca90f733358aba990e0a4872e05b5170bd325f5e02822496933838360405161095e939291906135ec565b60405180910390a15050565b61098583838360405180602001604052806000815250610e67565b505050565b60096020528060005260406000206000915090505481565b6109aa6112fe565b73ffffffffffffffffffffffffffffffffffffffff166109c8610c2a565b73ffffffffffffffffffffffffffffffffffffffff1614610a1e576040517f08c379a0000000000000000000000000000000000000000000000000000000008152600401610a15906137e9565b60405180910390fd5b8060089080519060200190610a34929190612174565b5050565b6000806002600084815260200190815260200160002060009054906101000a900473ffffffffffffffffffffffffffffffffffffffff169050600073ffffffffffffffffffffffffffffffffffffffff168173ffffffffffffffffffffffffffffffffffffffff161415610ae1576040517f08c379a0000000000000000000000000000000000000000000000000000000008152600401610ad890613789565b60405180910390fd5b80915050919050565b60008073ffffffffffffffffffffffffffffffffffffffff168273ffffffffffffffffffffffffffffffffffffffff161415610b5b576040517f08c379a0000000000000000000000000000000000000000000000000000000008152600401610b5290613769565b60405180910390fd5b600360008373ffffffffffffffffffffffffffffffffffffffff1673ffffffffffffffffffffffffffffffffffffffff168152602001908152602001600020549050919050565b610baa6112fe565b73ffffffffffffffffffffffffffffffffffffffff16610bc8610c2a565b73ffffffffffffffffffffffffffffffffffffffff1614610c1e576040517f08c379a0000000000000000000000000000000000000000000000000000000008152600401610c15906137e9565b60405180910390fd5b610c286000611717565b565b6000600660009054906101000a900473ffffffffffffffffffffffffffffffffffffffff16905090565b606060018054610c6390613c24565b80601f0160208091040260200160405190810160405280929190818152602001828054610c8f90613c24565b8015610cdc5780601f10610cb157610100808354040283529160200191610cdc565b820191906000526020600020905b815481529060010190602001808311610cbf57829003601f168201915b5050505050905090565b610cee6112fe565b73ffffffffffffffffffffffffffffffffffffffff168273ffffffffffffffffffffffffffffffffffffffff161415610d5c576040517f08c379a0000000000000000000000000000000000000000000000000000000008152600401610d5390613709565b60405180910390fd5b8060056000610d696112fe565b73ffffffffffffffffffffffffffffffffffffffff1673ffffffffffffffffffffffffffffffffffffffff16815260200190815260200160002060008473ffffffffffffffffffffffffffffffffffffffff1673ffffffffffffffffffffffffffffffffffffffff16815260200190815260200160002060006101000a81548160ff0219169083151502179055508173ffffffffffffffffffffffffffffffffffffffff16610e166112fe565b73ffffffffffffffffffffffffffffffffffffffff167f17307eab39ab6107e8899845ad3d59bd9653f200f220920489ca2b5937696c3183604051610e5b919061364c565b60405180910390a35050565b610e78610e726112fe565b836113bf565b610eb7576040517f08c379a0000000000000000000000000000000000000000000000000000000008152600401610eae90613869565b60405180910390fd5b610ec3848484846117dd565b50505050565b60606000610ee2600884610edd9190613c9f565b611839565b90506000610efb600885610ef69190613a85565b611839565b90506000610f1b60096000878152602001908152602001600020546119e6565b90506000610f5984846008806008808a8a8a604051602001610f4599989796959493929190613429565b604051602081830303815290604052611ba7565b9050600081604051602001610f6e9190613563565b60405160208183030381529060405290508095505050505050919050565b62ffffff8210610fd1576040517f08c379a0000000000000000000000000000000000000000000000000000000008152600401610fc890613829565b60405180910390fd5b3373ffffffffffffffffffffffffffffffffffffffff16610ff182610a38565b73ffffffffffffffffffffffffffffffffffffffff1614611047576040517f08c379a000000000000000000000000000000000000000000000000000000000815260040161103e906138a9565b60405180910390fd5b8160096000838152602001908152602001600020819055507f31f3cf90b477045b7638a423ab54cb6ec05bc5d836722c65b9ff178072c460f381836040516110909291906138e4565b60405180910390a15050565b6000600560008473ffffffffffffffffffffffffffffffffffffffff1673ffffffffffffffffffffffffffffffffffffffff16815260200190815260200160002060008373ffffffffffffffffffffffffffffffffffffffff1673ffffffffffffffffffffffffffffffffffffffff16815260200190815260200160002060009054906101000a900460ff16905092915050565b6111386112fe565b73ffffffffffffffffffffffffffffffffffffffff16611156610c2a565b73ffffffffffffffffffffffffffffffffffffffff16146111ac576040517f08c379a00000000000000000000000000000000000000000000000000000000081526004016111a3906137e9565b60405180910390fd5b600073ffffffffffffffffffffffffffffffffffffffff168173ffffffffffffffffffffffffffffffffffffffff16141561121c576040517f08c379a0000000000000000000000000000000000000000000000000000000008152600401611213906136a9565b60405180910390fd5b61122581611717565b50565b60007f01ffc9a7000000000000000000000000000000000000000000000000000000007bffffffffffffffffffffffffffffffffffffffffffffffffffffffff1916827bffffffffffffffffffffffffffffffffffffffffffffffffffffffff1916149050919050565b60008073ffffffffffffffffffffffffffffffffffffffff166002600084815260200190815260200160002060009054906101000a900473ffffffffffffffffffffffffffffffffffffffff1673ffffffffffffffffffffffffffffffffffffffff1614159050919050565b600033905090565b816004600083815260200190815260200160002060006101000a81548173ffffffffffffffffffffffffffffffffffffffff021916908373ffffffffffffffffffffffffffffffffffffffff160217905550808273ffffffffffffffffffffffffffffffffffffffff1661137983610a38565b73ffffffffffffffffffffffffffffffffffffffff167f8c5be1e5ebec7d5bd14f71427d1e84f3dd0314c0f7b2291e5b200ac8c7c3b92560405160405180910390a45050565b60006113ca82611292565b611409576040517f08c379a000000000000000000000000000000000000000000000000000000000815260040161140090613729565b60405180910390fd5b600061141483610a38565b90508073ffffffffffffffffffffffffffffffffffffffff168473ffffffffffffffffffffffffffffffffffffffff16148061148357508373ffffffffffffffffffffffffffffffffffffffff1661146b8461057e565b73ffffffffffffffffffffffffffffffffffffffff16145b806114945750611493818561109c565b5b91505092915050565b8273ffffffffffffffffffffffffffffffffffffffff166114bd82610a38565b73ffffffffffffffffffffffffffffffffffffffff1614611513576040517f08c379a000000000000000000000000000000000000000000000000000000000815260040161150a90613809565b60405180910390fd5b600073ffffffffffffffffffffffffffffffffffffffff168273ffffffffffffffffffffffffffffffffffffffff161415611583576040517f08c379a000000000000000000000000000000000000000000000000000000000815260040161157a906136e9565b60405180910390fd5b61158e838383611d65565b611599600082611306565b6001600360008573ffffffffffffffffffffffffffffffffffffffff1673ffffffffffffffffffffffffffffffffffffffff16815260200190815260200160002060008282546115e99190613b10565b925050819055506001600360008473ffffffffffffffffffffffffffffffffffffffff1673ffffffffffffffffffffffffffffffffffffffff16815260200190815260200160002060008282546116409190613a2f565b92505081905550816002600083815260200190815260200160002060006101000a81548173ffffffffffffffffffffffffffffffffffffffff021916908373ffffffffffffffffffffffffffffffffffffffff160217905550808273ffffffffffffffffffffffffffffffffffffffff168473ffffffffffffffffffffffffffffffffffffffff167fddf252ad1be2c89b69c2b068fc378daa952ba7f163c4a11628f55a4df523b3ef60405160405180910390a4505050565b611713828260405180602001604052806000815250611d6a565b5050565b6000600660009054906101000a900473ffffffffffffffffffffffffffffffffffffffff16905081600660006101000a81548173ffffffffffffffffffffffffffffffffffffffff021916908373ffffffffffffffffffffffffffffffffffffffff1602179055508173ffffffffffffffffffffffffffffffffffffffff168173ffffffffffffffffffffffffffffffffffffffff167f8be0079c531659141344cd1fd0a4f28419497f9722a3daafe3b4186f6b6457e060405160405180910390a35050565b6117e884848461149d565b6117f484848484611dc5565b611833576040517f08c379a000000000000000000000000000000000000000000000000000000000815260040161182a90613689565b60405180910390fd5b50505050565b60606000821415611881576040518060400160405280600181526020017f300000000000000000000000000000000000000000000000000000000000000081525090506119e1565b600082905060005b600082146118b357808061189c90613c56565b915050600a826118ac9190613a85565b9150611889565b60008167ffffffffffffffff8111156118f5577f4e487b7100000000000000000000000000000000000000000000000000000000600052604160045260246000fd5b6040519080825280601f01601f1916602001820160405280156119275781602001600182028036833780820191505090505b5090505b600085146119da576001826119409190613b10565b9150600a8561194f9190613c9f565b603061195b9190613a2f565b60f81b818381518110611997577f4e487b7100000000000000000000000000000000000000000000000000000000600052603260045260246000fd5b60200101907effffffffffffffffffffffffffffffffffffffffffffffffffffffffffffff1916908160001a905350600a856119d39190613a85565b945061192b565b8093505050505b919050565b60606000821415611a2e576040518060400160405280600181526020017f30000000000000000000000000000000000000000000000000000000000000008152509050611ba2565b600082905060005b60008214611a58578080611a4990613c56565b915050600482901c9150611a36565b6000600f905060008267ffffffffffffffff811115611aa0577f4e487b7100000000000000000000000000000000000000000000000000000000600052604160045260246000fd5b6040519080825280601f01601f191660200182016040528015611ad25781602001600182028036833780820191505090505b50905060008390505b60008714611b99576000838816905060098111611b0757806030611aff9190613a2f565b60f81b611b18565b806037611b149190613a2f565b60f81b5b8383611b2390613bfa565b93508381518110611b5d577f4e487b7100000000000000000000000000000000000000000000000000000000600052603260045260246000fd5b60200101907effffffffffffffffffffffffffffffffffffffffffffffffffffffffffffff1916908160001a905350600488901c975050611adb565b81955050505050505b919050565b60606000825190506000811415611bd05760405180602001604052806000815250915050611d60565b60006003600283611be19190613a2f565b611beb9190613a85565b6004611bf79190613ab6565b90506000602082611c089190613a2f565b67ffffffffffffffff811115611c47577f4e487b7100000000000000000000000000000000000000000000000000000000600052604160045260246000fd5b6040519080825280601f01601f191660200182016040528015611c795781602001600182028036833780820191505090505b5090506000604051806060016040528060408152602001613dfa604091399050600181016020830160005b86811015611d1d5760038101905062ffffff818a015116603f8160121c168401518060081b905060ff603f83600c1c1686015116810190508060081b905060ff603f8360061c1686015116810190508060081b905060ff603f831686015116810190508060e01b90508084526004840193505050611ca4565b506003860660018114611d375760028114611d4757611d52565b613d3d60f01b6002830352611d52565b603d60f81b60018303525b508484525050819450505050505b919050565b505050565b611d748383611f5c565b611d816000848484611dc5565b611dc0576040517f08c379a0000000000000000000000000000000000000000000000000000000008152600401611db790613689565b60405180910390fd5b505050565b6000611de68473ffffffffffffffffffffffffffffffffffffffff1661212a565b15611f4f578373ffffffffffffffffffffffffffffffffffffffff1663150b7a02611e0f6112fe565b8786866040518563ffffffff1660e01b8152600401611e3194939291906135a0565b602060405180830381600087803b158015611e4b57600080fd5b505af1925050508015611e7c57506040513d601f19601f82011682018060405250810190611e799190612520565b60015b611eff573d8060008114611eac576040519150601f19603f3d011682016040523d82523d6000602084013e611eb1565b606091505b50600081511415611ef7576040517f08c379a0000000000000000000000000000000000000000000000000000000008152600401611eee90613689565b60405180910390fd5b805181602001fd5b63150b7a0260e01b7bffffffffffffffffffffffffffffffffffffffffffffffffffffffff1916817bffffffffffffffffffffffffffffffffffffffffffffffffffffffff191614915050611f54565b600190505b949350505050565b600073ffffffffffffffffffffffffffffffffffffffff168273ffffffffffffffffffffffffffffffffffffffff161415611fcc576040517f08c379a0000000000000000000000000000000000000000000000000000000008152600401611fc3906137a9565b60405180910390fd5b611fd581611292565b15612015576040517f08c379a000000000000000000000000000000000000000000000000000000000815260040161200c906136c9565b60405180910390fd5b61202160008383611d65565b6001600360008473ffffffffffffffffffffffffffffffffffffffff1673ffffffffffffffffffffffffffffffffffffffff16815260200190815260200160002060008282546120719190613a2f565b92505081905550816002600083815260200190815260200160002060006101000a81548173ffffffffffffffffffffffffffffffffffffffff021916908373ffffffffffffffffffffffffffffffffffffffff160217905550808273ffffffffffffffffffffffffffffffffffffffff16600073ffffffffffffffffffffffffffffffffffffffff167fddf252ad1be2c89b69c2b068fc378daa952ba7f163c4a11628f55a4df523b3ef60405160405180910390a45050565b600080823b905060008111915050919050565b6040518060600160405280600073ffffffffffffffffffffffffffffffffffffffff16815260200160008152602001600081525090565b82805461218090613c24565b90600052602060002090601f0160209004810192826121a257600085556121e9565b82601f106121bb57805160ff19168380011785556121e9565b828001600101855582156121e9579182015b828111156121e85782518255916020019190600101906121cd565b5b5090506121f691906121fa565b5090565b5b808211156122135760008160009055506001016121fb565b5090565b600061222a6122258461393e565b61390d565b90508281526020810184848401111561224257600080fd5b61224d848285613bb8565b509392505050565b60006122686122638461396e565b61390d565b90508281526020810184848401111561228057600080fd5b61228b848285613bb8565b509392505050565b6000813590506122a281613d9d565b92915050565b6000813590506122b781613db4565b92915050565b6000813590506122cc81613dcb565b92915050565b6000815190506122e181613dcb565b92915050565b600082601f8301126122f857600080fd5b8135612308848260208601612217565b91505092915050565b600082601f83011261232257600080fd5b8135612332848260208601612255565b91505092915050565b60008135905061234a81613de2565b92915050565b60006020828403121561236257600080fd5b600061237084828501612293565b91505092915050565b6000806040838503121561238c57600080fd5b600061239a85828601612293565b92505060206123ab85828601612293565b9150509250929050565b6000806000606084860312156123ca57600080fd5b60006123d886828701612293565b93505060206123e986828701612293565b92505060406123fa8682870161233b565b9150509250925092565b6000806000806080858703121561241a57600080fd5b600061242887828801612293565b945050602061243987828801612293565b935050604061244a8782880161233b565b925050606085013567ffffffffffffffff81111561246757600080fd5b612473878288016122e7565b91505092959194509250565b6000806040838503121561249257600080fd5b60006124a085828601612293565b92505060206124b1858286016122a8565b9150509250929050565b600080604083850312156124ce57600080fd5b60006124dc85828601612293565b92505060206124ed8582860161233b565b9150509250929050565b60006020828403121561250957600080fd5b6000612517848285016122bd565b91505092915050565b60006020828403121561253257600080fd5b6000612540848285016122d2565b91505092915050565b60006020828403121561255b57600080fd5b600082013567ffffffffffffffff81111561257557600080fd5b61258184828501612311565b91505092915050565b60006020828403121561259c57600080fd5b60006125aa8482850161233b565b91505092915050565b600080604083850312156125c657600080fd5b60006125d48582860161233b565b92505060206125e58582860161233b565b9150509250929050565b60006125fb83836133c9565b60608301905092915050565b61261081613b44565b82525050565b61261f81613b44565b82525050565b6000612630826139c3565b61263a81856139f1565b93506126458361399e565b8060005b8381101561267657815161265d88826125ef565b9750612668836139e4565b925050600181019050612649565b5085935050505092915050565b61268c81613b56565b82525050565b600061269d826139ce565b6126a78185613a02565b93506126b7818560208601613bc7565b6126c081613d8c565b840191505092915050565b60006126d6826139d9565b6126e08185613a13565b93506126f0818560208601613bc7565b6126f981613d8c565b840191505092915050565b600061270f826139d9565b6127198185613a24565b9350612729818560208601613bc7565b80840191505092915050565b6000815461274281613c24565b61274c8186613a24565b945060018216600081146127675760018114612778576127ab565b60ff198316865281860193506127ab565b612781856139ae565b60005b838110156127a357815481890152600182019150602081019050612784565b838801955050505b50505092915050565b60006127c1601083613a24565b91507f7b226e616d65223a2022506978656c20000000000000000000000000000000006000830152601082019050919050565b6000612801602383613a24565b91507f7b202274726169745f74797065223a2022436f6c6f72222c202276616c75652260008301527f3a202200000000000000000000000000000000000000000000000000000000006020830152602382019050919050565b6000612867603283613a13565b91507f4552433732313a207472616e7366657220746f206e6f6e20455243373231526560008301527f63656976657220696d706c656d656e74657200000000000000000000000000006020830152604082019050919050565b60006128cd602683613a13565b91507f4f776e61626c653a206e6577206f776e657220697320746865207a65726f206160008301527f64647265737300000000000000000000000000000000000000000000000000006020830152604082019050919050565b6000612933601c83613a13565b91507f4552433732313a20746f6b656e20616c7265616479206d696e746564000000006000830152602082019050919050565b6000612973600383613a24565b91507f227d2c00000000000000000000000000000000000000000000000000000000006000830152600382019050919050565b60006129b3602483613a13565b91507f4552433732313a207472616e7366657220746f20746865207a65726f2061646460008301527f72657373000000000000000000000000000000000000000000000000000000006020830152604082019050919050565b6000612a19601983613a13565b91507f4552433732313a20617070726f766520746f2063616c6c6572000000000000006000830152602082019050919050565b6000612a59600b83613a24565b91507f2f6170692f696d616765220000000000000000000000000000000000000000006000830152600b82019050919050565b6000612a99602c83613a13565b91507f4552433732313a206f70657261746f7220717565727920666f72206e6f6e657860008301527f697374656e7420746f6b656e00000000000000000000000000000000000000006020830152604082019050919050565b6000612aff601383613a24565b91507f2c202265787465726e616c5f75726c223a2022000000000000000000000000006000830152601382019050919050565b6000612b3f603883613a13565b91507f4552433732313a20617070726f76652063616c6c6572206973206e6f74206f7760008301527f6e6572206e6f7220617070726f76656420666f7220616c6c00000000000000006020830152604082019050919050565b6000612ba5600183613a24565b91507f22000000000000000000000000000000000000000000000000000000000000006000830152600182019050919050565b6000612be5602a83613a13565b91507f4552433732313a2062616c616e636520717565727920666f7220746865207a6560008301527f726f2061646472657373000000000000000000000000000000000000000000006020830152604082019050919050565b6000612c4b602983613a13565b91507f4552433732313a206f776e657220717565727920666f72206e6f6e657869737460008301527f656e7420746f6b656e00000000000000000000000000000000000000000000006020830152604082019050919050565b6000612cb1600c83613a24565b91507f2c2022696d616765223a202200000000000000000000000000000000000000006000830152600c82019050919050565b6000612cf1601183613a24565b91507f2c202261747472696275746573223a205b0000000000000000000000000000006000830152601182019050919050565b6000612d31600283613a24565b91507f227d0000000000000000000000000000000000000000000000000000000000006000830152600282019050919050565b6000612d71602083613a13565b91507f4552433732313a206d696e7420746f20746865207a65726f20616464726573736000830152602082019050919050565b6000612db1600683613a24565b91507f3c2f613e2e2200000000000000000000000000000000000000000000000000006000830152600682019050919050565b6000612df1602c83613a13565b91507f4552433732313a20617070726f76656420717565727920666f72206e6f6e657860008301527f697374656e7420746f6b656e00000000000000000000000000000000000000006020830152604082019050919050565b6000612e57602083613a13565b91507f4f776e61626c653a2063616c6c6572206973206e6f7420746865206f776e65726000830152602082019050919050565b6000612e97602983613a13565b91507f4552433732313a207472616e73666572206f6620746f6b656e2074686174206960008301527f73206e6f74206f776e00000000000000000000000000000000000000000000006020830152604082019050919050565b6000612efd601283613a13565b91507f436f6c6f72206f7574206f662072616e676500000000000000000000000000006000830152602082019050919050565b6000612f3d600283613a24565b91507f5d7d0000000000000000000000000000000000000000000000000000000000006000830152600282019050919050565b6000612f7d602183613a13565b91507f4552433732313a20617070726f76616c20746f2063757272656e74206f776e6560008301527f72000000000000000000000000000000000000000000000000000000000000006020830152604082019050919050565b6000612fe3600283613a24565b91507f2c200000000000000000000000000000000000000000000000000000000000006000830152600282019050919050565b6000613023601d83613a24565b91507f646174613a6170706c69636174696f6e2f6a736f6e3b6261736536342c0000006000830152601d82019050919050565b6000613063603183613a13565b91507f4552433732313a207472616e736665722063616c6c6572206973206e6f74206f60008301527f776e6572206e6f7220617070726f7665640000000000000000000000000000006020830152604082019050919050565b60006130c9601483613a13565b91507f496e76616c696420746f6b656e206e756d6265720000000000000000000000006000830152602082019050919050565b6000613109602e83613a13565b91507f596f7520646f206e6f742068617665207065726d697373696f6e20746f20616c60008301527f746572207468697320706978656c0000000000000000000000000000000000006020830152604082019050919050565b600061316f600283613a24565b91507f273e0000000000000000000000000000000000000000000000000000000000006000830152600282019050919050565b60006131b061014b83613a24565b91507f2c20226465736372697074696f6e223a2022506978696d696e7420697320612060008301527f7069656365206f6620636f6c6c61626f72617469766520617274776f726b207460208301527f686174206c69766573206f6e2074686520457468657265756d2f506f6c79676f60408301527f6e20626c6f636b636861696e2e2045616368204e465420697320626f7468207460608301527f686520617274776f726b20697473656c6620616e64206f776e6572736869702060808301527f6f7665722031206f6620363420706978656c732074686174206d616b6520757060a08301527f2074686520776f726b2e204173206120706978656c206f776e657220796f752060c08301527f63616e2063686f6f73652074686520636f6c6f72206f6620796f75722070697860e08301527f656c20616e64206368616e676520697420617420616e792074696d652e20546f6101008301527f206d696e74206f72206d6f6469667920796f757220706978656c2c20766973696101208301527f74203c6120687265663d2700000000000000000000000000000000000000000061014083015261014b82019050919050565b6000613370602a83613a24565b91507f7b202274726169745f74797065223a2022436f6f7264696e61746573222c202060008301527f2276616c7565223a2022000000000000000000000000000000000000000000006020830152602a82019050919050565b6060820160008201516133df6000850182612607565b5060208201516133f2602085018261340b565b506040820151613405604085018261340b565b50505050565b61341481613bae565b82525050565b61342381613bae565b82525050565b6000613434826127b4565b9150613440828c612704565b915061344b82612fd6565b9150613457828b612704565b915061346282612b98565b915061346d826131a2565b9150613479828a612735565b915061348482613162565b91506134908289612735565b915061349b82612da4565b91506134a682612af2565b91506134b28288612735565b91506134bd82612b98565b91506134c882612ca4565b91506134d48287612735565b91506134df82612a4c565b91506134ea82612ce4565b91506134f582613363565b91506135018286612704565b915061350c82612fd6565b91506135188285612704565b915061352382612966565b915061352e826127f4565b915061353a8284612704565b915061354582612d24565b915061355082612f30565b91508190509a9950505050505050505050565b600061356e82613016565b915061357a8284612704565b915081905092915050565b600060208201905061359a6000830184612616565b92915050565b60006080820190506135b56000830187612616565b6135c26020830186612616565b6135cf604083018561341a565b81810360608301526135e18184612692565b905095945050505050565b60006060820190506136016000830186612616565b61360e602083018561341a565b81810360408301526136208184612625565b9050949350505050565b600060208201905081810360008301526136448184612625565b905092915050565b60006020820190506136616000830184612683565b92915050565b6000602082019050818103600083015261368181846126cb565b905092915050565b600060208201905081810360008301526136a28161285a565b9050919050565b600060208201905081810360008301526136c2816128c0565b9050919050565b600060208201905081810360008301526136e281612926565b9050919050565b60006020820190508181036000830152613702816129a6565b9050919050565b6000602082019050818103600083015261372281612a0c565b9050919050565b6000602082019050818103600083015261374281612a8c565b9050919050565b6000602082019050818103600083015261376281612b32565b9050919050565b6000602082019050818103600083015261378281612bd8565b9050919050565b600060208201905081810360008301526137a281612c3e565b9050919050565b600060208201905081810360008301526137c281612d64565b9050919050565b600060208201905081810360008301526137e281612de4565b9050919050565b6000602082019050818103600083015261380281612e4a565b9050919050565b6000602082019050818103600083015261382281612e8a565b9050919050565b6000602082019050818103600083015261384281612ef0565b9050919050565b6000602082019050818103600083015261386281612f70565b9050919050565b6000602082019050818103600083015261388281613056565b9050919050565b600060208201905081810360008301526138a2816130bc565b9050919050565b600060208201905081810360008301526138c2816130fc565b9050919050565b60006020820190506138de600083018461341a565b92915050565b60006040820190506138f9600083018561341a565b613906602083018461341a565b9392505050565b6000604051905081810181811067ffffffffffffffff8211171561393457613933613d5d565b5b8060405250919050565b600067ffffffffffffffff82111561395957613958613d5d565b5b601f19601f8301169050602081019050919050565b600067ffffffffffffffff82111561398957613988613d5d565b5b601f19601f8301169050602081019050919050565b6000819050602082019050919050565b60008190508160005260206000209050919050565b600081519050919050565b600081519050919050565b600081519050919050565b6000602082019050919050565b600082825260208201905092915050565b600082825260208201905092915050565b600082825260208201905092915050565b600081905092915050565b6000613a3a82613bae565b9150613a4583613bae565b9250827fffffffffffffffffffffffffffffffffffffffffffffffffffffffffffffffff03821115613a7a57613a79613cd0565b5b828201905092915050565b6000613a9082613bae565b9150613a9b83613bae565b925082613aab57613aaa613cff565b5b828204905092915050565b6000613ac182613bae565b9150613acc83613bae565b9250817fffffffffffffffffffffffffffffffffffffffffffffffffffffffffffffffff0483118215151615613b0557613b04613cd0565b5b828202905092915050565b6000613b1b82613bae565b9150613b2683613bae565b925082821015613b3957613b38613cd0565b5b828203905092915050565b6000613b4f82613b8e565b9050919050565b60008115159050919050565b60007fffffffff0000000000000000000000000000000000000000000000000000000082169050919050565b600073ffffffffffffffffffffffffffffffffffffffff82169050919050565b6000819050919050565b82818337600083830152505050565b60005b83811015613be5578082015181840152602081019050613bca565b83811115613bf4576000848401525b50505050565b6000613c0582613bae565b91506000821415613c1957613c18613cd0565b5b600182039050919050565b60006002820490506001821680613c3c57607f821691505b60208210811415613c5057613c4f613d2e565b5b50919050565b6000613c6182613bae565b91507fffffffffffffffffffffffffffffffffffffffffffffffffffffffffffffffff821415613c9457613c93613cd0565b5b600182019050919050565b6000613caa82613bae565b9150613cb583613bae565b925082613cc557613cc4613cff565b5b828206905092915050565b7f4e487b7100000000000000000000000000000000000000000000000000000000600052601160045260246000fd5b7f4e487b7100000000000000000000000000000000000000000000000000000000600052601260045260246000fd5b7f4e487b7100000000000000000000000000000000000000000000000000000000600052602260045260246000fd5b7f4e487b7100000000000000000000000000000000000000000000000000000000600052604160045260246000fd5b6000601f19601f8301169050919050565b613da681613b44565b8114613db157600080fd5b50565b613dbd81613b56565b8114613dc857600080fd5b50565b613dd481613b62565b8114613ddf57600080fd5b50565b613deb81613bae565b8114613df657600080fd5b5056fe4142434445464748494a4b4c4d4e4f505152535455565758595a6162636465666768696a6b6c6d6e6f707172737475767778797a303132333435363738392b2fa2646970667358221220a6e6c375e216c26b9a7c8d19b1e158ddee9d21fc78b6169921ac5db5a4ada21064736f6c63430008000033",
  "linkReferences": {},
  "deployedLinkReferences": {}
}