{
  "_format": "hh-sol-artifact-1",
  "contractName": "PixiMint",
  "sourceName": "contracts/PixiMint.sol",
  "abi": [
    {
      "inputs": [
        {
          "internalType": "uint256",
          "name": "numTiles",
          "type": "uint256"
        }
      ],
      "stateMutability": "nonpayable",
      "type": "constructor"
    },
    {
      "anonymous": false,
      "inputs": [
        {
          "indexed": true,
          "internalType": "address",
          "name": "owner",
          "type": "address"
        },
        {
          "indexed": true,
          "internalType": "address",
          "name": "approved",
          "type": "address"
        },
        {
          "indexed": true,
          "internalType": "uint256",
          "name": "tokenId",
          "type": "uint256"
        }
      ],
      "name": "Approval",
      "type": "event"
    },
    {
      "anonymous": false,
      "inputs": [
        {
          "indexed": true,
          "internalType": "address",
          "name": "owner",
          "type": "address"
        },
        {
          "indexed": true,
          "internalType": "address",
          "name": "operator",
          "type": "address"
        },
        {
          "indexed": false,
          "internalType": "bool",
          "name": "approved",
          "type": "bool"
        }
      ],
      "name": "ApprovalForAll",
      "type": "event"
    },
    {
      "anonymous": false,
      "inputs": [
        {
          "indexed": true,
          "internalType": "address",
          "name": "previousOwner",
          "type": "address"
        },
        {
          "indexed": true,
          "internalType": "address",
          "name": "newOwner",
          "type": "address"
        }
      ],
      "name": "OwnershipTransferred",
      "type": "event"
    },
    {
      "anonymous": false,
      "inputs": [
        {
          "indexed": false,
          "internalType": "uint256",
          "name": "tokenId",
          "type": "uint256"
        },
        {
          "indexed": false,
          "internalType": "uint256",
          "name": "color",
          "type": "uint256"
        }
      ],
      "name": "PixelColorChanged",
      "type": "event"
    },
    {
      "anonymous": false,
      "inputs": [
        {
          "indexed": false,
          "internalType": "address",
          "name": "sender",
          "type": "address"
        },
        {
          "indexed": false,
          "internalType": "uint256",
          "name": "tokenId",
          "type": "uint256"
        },
        {
          "components": [
            {
              "internalType": "address",
              "name": "owner",
              "type": "address"
            },
            {
              "internalType": "uint256",
              "name": "color",
              "type": "uint256"
            },
            {
              "internalType": "uint256",
              "name": "tokenId",
              "type": "uint256"
            }
          ],
          "indexed": false,
          "internalType": "struct PixiMint.Pixel[]",
          "name": "board",
          "type": "tuple[]"
        }
      ],
      "name": "PixelMinted",
      "type": "event"
    },
    {
      "anonymous": false,
      "inputs": [
        {
          "indexed": true,
          "internalType": "address",
          "name": "from",
          "type": "address"
        },
        {
          "indexed": true,
          "internalType": "address",
          "name": "to",
          "type": "address"
        },
        {
          "indexed": true,
          "internalType": "uint256",
          "name": "tokenId",
          "type": "uint256"
        }
      ],
      "name": "Transfer",
      "type": "event"
    },
    {
      "inputs": [
        {
          "internalType": "address",
          "name": "to",
          "type": "address"
        },
        {
          "internalType": "uint256",
          "name": "tokenId",
          "type": "uint256"
        }
      ],
      "name": "approve",
      "outputs": [],
      "stateMutability": "nonpayable",
      "type": "function"
    },
    {
      "inputs": [
        {
          "internalType": "address",
          "name": "owner",
          "type": "address"
        }
      ],
      "name": "balanceOf",
      "outputs": [
        {
          "internalType": "uint256",
          "name": "",
          "type": "uint256"
        }
      ],
      "stateMutability": "view",
      "type": "function"
    },
    {
      "inputs": [
        {
          "internalType": "uint256",
          "name": "color",
          "type": "uint256"
        },
        {
          "internalType": "uint256",
          "name": "tokenId",
          "type": "uint256"
        }
      ],
      "name": "colorPixi",
      "outputs": [],
      "stateMutability": "nonpayable",
      "type": "function"
    },
    {
      "inputs": [
        {
          "internalType": "uint256",
          "name": "tokenId",
          "type": "uint256"
        }
      ],
      "name": "getApproved",
      "outputs": [
        {
          "internalType": "address",
          "name": "",
          "type": "address"
        }
      ],
      "stateMutability": "view",
      "type": "function"
    },
    {
      "inputs": [],
      "name": "getBoard",
      "outputs": [
        {
          "components": [
            {
              "internalType": "address",
              "name": "owner",
              "type": "address"
            },
            {
              "internalType": "uint256",
              "name": "color",
              "type": "uint256"
            },
            {
              "internalType": "uint256",
              "name": "tokenId",
              "type": "uint256"
            }
          ],
          "internalType": "struct PixiMint.Pixel[]",
          "name": "",
          "type": "tuple[]"
        }
      ],
      "stateMutability": "view",
      "type": "function"
    },
    {
      "inputs": [
        {
          "internalType": "address",
          "name": "owner",
          "type": "address"
        },
        {
          "internalType": "address",
          "name": "operator",
          "type": "address"
        }
      ],
      "name": "isApprovedForAll",
      "outputs": [
        {
          "internalType": "bool",
          "name": "",
          "type": "bool"
        }
      ],
      "stateMutability": "view",
      "type": "function"
    },
    {
      "inputs": [
        {
          "internalType": "uint256",
          "name": "tokenId",
          "type": "uint256"
        }
      ],
      "name": "mintPixi",
      "outputs": [],
      "stateMutability": "nonpayable",
      "type": "function"
    },
    {
      "inputs": [],
      "name": "name",
      "outputs": [
        {
          "internalType": "string",
          "name": "",
          "type": "string"
        }
      ],
      "stateMutability": "view",
      "type": "function"
    },
    {
      "inputs": [],
      "name": "owner",
      "outputs": [
        {
          "internalType": "address",
          "name": "",
          "type": "address"
        }
      ],
      "stateMutability": "view",
      "type": "function"
    },
    {
      "inputs": [
        {
          "internalType": "uint256",
          "name": "tokenId",
          "type": "uint256"
        }
      ],
      "name": "ownerOf",
      "outputs": [
        {
          "internalType": "address",
          "name": "",
          "type": "address"
        }
      ],
      "stateMutability": "view",
      "type": "function"
    },
    {
      "inputs": [],
      "name": "renounceOwnership",
      "outputs": [],
      "stateMutability": "nonpayable",
      "type": "function"
    },
    {
      "inputs": [
        {
          "internalType": "address",
          "name": "from",
          "type": "address"
        },
        {
          "internalType": "address",
          "name": "to",
          "type": "address"
        },
        {
          "internalType": "uint256",
          "name": "tokenId",
          "type": "uint256"
        }
      ],
      "name": "safeTransferFrom",
      "outputs": [],
      "stateMutability": "nonpayable",
      "type": "function"
    },
    {
      "inputs": [
        {
          "internalType": "address",
          "name": "from",
          "type": "address"
        },
        {
          "internalType": "address",
          "name": "to",
          "type": "address"
        },
        {
          "internalType": "uint256",
          "name": "tokenId",
          "type": "uint256"
        },
        {
          "internalType": "bytes",
          "name": "_data",
          "type": "bytes"
        }
      ],
      "name": "safeTransferFrom",
      "outputs": [],
      "stateMutability": "nonpayable",
      "type": "function"
    },
    {
      "inputs": [
        {
          "internalType": "address",
          "name": "operator",
          "type": "address"
        },
        {
          "internalType": "bool",
          "name": "approved",
          "type": "bool"
        }
      ],
      "name": "setApprovalForAll",
      "outputs": [],
      "stateMutability": "nonpayable",
      "type": "function"
    },
    {
      "inputs": [
        {
          "internalType": "string",
          "name": "url",
          "type": "string"
        }
      ],
      "name": "setBaseURI",
      "outputs": [],
      "stateMutability": "nonpayable",
      "type": "function"
    },
    {
      "inputs": [
        {
          "internalType": "bytes4",
          "name": "interfaceId",
          "type": "bytes4"
        }
      ],
      "name": "supportsInterface",
      "outputs": [
        {
          "internalType": "bool",
          "name": "",
          "type": "bool"
        }
      ],
      "stateMutability": "view",
      "type": "function"
    },
    {
      "inputs": [],
      "name": "symbol",
      "outputs": [
        {
          "internalType": "string",
          "name": "",
          "type": "string"
        }
      ],
      "stateMutability": "view",
      "type": "function"
    },
    {
      "inputs": [
        {
          "internalType": "uint256",
          "name": "",
          "type": "uint256"
        }
      ],
      "name": "tokenColors",
      "outputs": [
        {
          "internalType": "uint256",
          "name": "",
          "type": "uint256"
        }
      ],
      "stateMutability": "view",
      "type": "function"
    },
    {
      "inputs": [
        {
          "internalType": "uint256",
          "name": "_tokenId",
          "type": "uint256"
        }
      ],
      "name": "tokenURI",
      "outputs": [
        {
          "internalType": "string",
          "name": "",
          "type": "string"
        }
      ],
      "stateMutability": "view",
      "type": "function"
    },
    {
      "inputs": [
        {
          "internalType": "address",
          "name": "from",
          "type": "address"
        },
        {
          "internalType": "address",
          "name": "to",
          "type": "address"
        },
        {
          "internalType": "uint256",
          "name": "tokenId",
          "type": "uint256"
        }
      ],
      "name": "transferFrom",
      "outputs": [],
      "stateMutability": "nonpayable",
      "type": "function"
    },
    {
      "inputs": [
        {
          "internalType": "address",
          "name": "newOwner",
          "type": "address"
        }
      ],
      "name": "transferOwnership",
      "outputs": [],
      "stateMutability": "nonpayable",
      "type": "function"
    }
  ],
  "bytecode": "0x60806040523480156200001157600080fd5b50604051620041af380380620041af833981810160405281019062000037919062000352565b6040518060400160405280600881526020017f506978694d696e740000000000000000000000000000000000000000000000008152506040518060400160405280600581526020017f50584d4e540000000000000000000000000000000000000000000000000000008152508160009080519060200190620000bb9291906200028b565b508060019080519060200190620000d49291906200028b565b505050620000f7620000eb620001a760201b60201c565b620001af60201b60201c565b6200010e60076200027560201b620012291760201c565b60005b818110156200014a576000600a6000838152602001908152602001600020819055506001816200014291906200037e565b905062000111565b50806008819055506040518060400160405280601481526020017f68747470733a2f2f706978696d696e742e636f6d000000000000000000000000815250600990805190602001906200019f9291906200028b565b505062000493565b600033905090565b6000600660009054906101000a900473ffffffffffffffffffffffffffffffffffffffff16905081600660006101000a81548173ffffffffffffffffffffffffffffffffffffffff021916908373ffffffffffffffffffffffffffffffffffffffff1602179055508173ffffffffffffffffffffffffffffffffffffffff168173ffffffffffffffffffffffffffffffffffffffff167f8be0079c531659141344cd1fd0a4f28419497f9722a3daafe3b4186f6b6457e060405160405180910390a35050565b6001816000016000828254019250508190555050565b8280546200029990620003e5565b90600052602060002090601f016020900481019282620002bd576000855562000309565b82601f10620002d857805160ff191683800117855562000309565b8280016001018555821562000309579182015b8281111562000308578251825591602001919060010190620002eb565b5b5090506200031891906200031c565b5090565b5b80821115620003375760008160009055506001016200031d565b5090565b6000815190506200034c8162000479565b92915050565b6000602082840312156200036557600080fd5b600062000375848285016200033b565b91505092915050565b60006200038b82620003db565b91506200039883620003db565b9250827fffffffffffffffffffffffffffffffffffffffffffffffffffffffffffffffff03821115620003d057620003cf6200041b565b5b828201905092915050565b6000819050919050565b60006002820490506001821680620003fe57607f821691505b602082108114156200041557620004146200044a565b5b50919050565b7f4e487b7100000000000000000000000000000000000000000000000000000000600052601160045260246000fd5b7f4e487b7100000000000000000000000000000000000000000000000000000000600052602260045260246000fd5b6200048481620003db565b81146200049057600080fd5b50565b613d0c80620004a36000396000f3fe608060405234801561001057600080fd5b50600436106101375760003560e01c80636352211e116100b8578063a22cb4651161007c578063a22cb4651461033a578063b88d4fde14610356578063c87b56dd14610372578063c95b66c1146103a2578063e985e9c5146103be578063f2fde38b146103ee57610137565b80636352211e1461029457806370a08231146102c4578063715018a6146102f45780638da5cb5b146102fe57806395d89b411461031c57610137565b80633264a34b116100ff5780633264a34b146101f2578063336193201461021057806342842e0e1461022c57806350dc17221461024857806355f804b31461027857610137565b806301ffc9a71461013c57806306fdde031461016c578063081812fc1461018a578063095ea7b3146101ba57806323b872dd146101d6575b600080fd5b6101566004803603810190610151919061234d565b61040a565b6040516101639190613513565b60405180910390f35b6101746104ec565b604051610181919061352e565b60405180910390f35b6101a4600480360381019061019f91906123e0565b61057e565b6040516101b1919061344c565b60405180910390f35b6101d460048036038101906101cf9190612311565b610603565b005b6101f060048036038101906101eb919061220b565b61071b565b005b6101fa61077b565b60405161020791906134f1565b60405180910390f35b61022a600480360381019061022591906123e0565b6108d1565b005b6102466004803603810190610241919061220b565b61096a565b005b610262600480360381019061025d91906123e0565b61098a565b60405161026f9190613790565b60405180910390f35b610292600480360381019061028d919061239f565b6109a2565b005b6102ae60048036038101906102a991906123e0565b610a38565b6040516102bb919061344c565b60405180910390f35b6102de60048036038101906102d991906121a6565b610aea565b6040516102eb9190613790565b60405180910390f35b6102fc610ba2565b005b610306610c2a565b604051610313919061344c565b60405180910390f35b610324610c54565b604051610331919061352e565b60405180910390f35b610354600480360381019061034f91906122d5565b610ce6565b005b610370600480360381019061036b919061225a565b610e67565b005b61038c600480360381019061038791906123e0565b610ec9565b604051610399919061352e565b60405180910390f35b6103bc60048036038101906103b79190612409565b610f8c565b005b6103d860048036038101906103d391906121cf565b61109d565b6040516103e59190613513565b60405180910390f35b610408600480360381019061040391906121a6565b611131565b005b60007f80ac58cd000000000000000000000000000000000000000000000000000000007bffffffffffffffffffffffffffffffffffffffffffffffffffffffff1916827bffffffffffffffffffffffffffffffffffffffffffffffffffffffff191614806104d557507f5b5e139f000000000000000000000000000000000000000000000000000000007bffffffffffffffffffffffffffffffffffffffffffffffffffffffff1916827bffffffffffffffffffffffffffffffffffffffffffffffffffffffff1916145b806104e557506104e48261123f565b5b9050919050565b6060600080546104fb90613ac1565b80601f016020809104026020016040519081016040528092919081815260200182805461052790613ac1565b80156105745780601f1061054957610100808354040283529160200191610574565b820191906000526020600020905b81548152906001019060200180831161055757829003601f168201915b5050505050905090565b6000610589826112a9565b6105c8576040517f08c379a00000000000000000000000000000000000000000000000000000000081526004016105bf90613690565b60405180910390fd5b6004600083815260200190815260200160002060009054906101000a900473ffffffffffffffffffffffffffffffffffffffff169050919050565b600061060e82610a38565b90508073ffffffffffffffffffffffffffffffffffffffff168373ffffffffffffffffffffffffffffffffffffffff16141561067f576040517f08c379a000000000000000000000000000000000000000000000000000000000815260040161067690613710565b60405180910390fd5b8073ffffffffffffffffffffffffffffffffffffffff1661069e611315565b73ffffffffffffffffffffffffffffffffffffffff1614806106cd57506106cc816106c7611315565b61109d565b5b61070c576040517f08c379a000000000000000000000000000000000000000000000000000000000815260040161070390613610565b60405180910390fd5b610716838361131d565b505050565b61072c610726611315565b826113d6565b61076b576040517f08c379a000000000000000000000000000000000000000000000000000000000815260040161076290613730565b60405180910390fd5b6107768383836114b4565b505050565b6060600060085467ffffffffffffffff8111156107c1577f4e487b7100000000000000000000000000000000000000000000000000000000600052604160045260246000fd5b6040519080825280602002602001820160405280156107fa57816020015b6107e7611f93565b8152602001906001900390816107df5790505b50905060005b6008548110156108c9576000610815826112a9565b156108265761082382610a38565b90505b600060405180606001604052808373ffffffffffffffffffffffffffffffffffffffff168152602001600a6000868152602001908152602001600020548152602001848152509050808484815181106108a8577f4e487b7100000000000000000000000000000000000000000000000000000000600052603260045260246000fd5b602002602001018190525050506001816108c291906138f6565b9050610800565b508091505090565b6008548110610915576040517f08c379a000000000000000000000000000000000000000000000000000000000815260040161090c90613750565b60405180910390fd5b61091f3382611710565b600061092961077b565b90507f63299682c8f36e5ca90f733358aba990e0a4872e05b5170bd325f5e02822496933838360405161095e939291906134b3565b60405180910390a15050565b61098583838360405180602001604052806000815250610e67565b505050565b600a6020528060005260406000206000915090505481565b6109aa611315565b73ffffffffffffffffffffffffffffffffffffffff166109c8610c2a565b73ffffffffffffffffffffffffffffffffffffffff1614610a1e576040517f08c379a0000000000000000000000000000000000000000000000000000000008152600401610a15906136b0565b60405180910390fd5b8060099080519060200190610a34929190611fca565b5050565b6000806002600084815260200190815260200160002060009054906101000a900473ffffffffffffffffffffffffffffffffffffffff169050600073ffffffffffffffffffffffffffffffffffffffff168173ffffffffffffffffffffffffffffffffffffffff161415610ae1576040517f08c379a0000000000000000000000000000000000000000000000000000000008152600401610ad890613650565b60405180910390fd5b80915050919050565b60008073ffffffffffffffffffffffffffffffffffffffff168273ffffffffffffffffffffffffffffffffffffffff161415610b5b576040517f08c379a0000000000000000000000000000000000000000000000000000000008152600401610b5290613630565b60405180910390fd5b600360008373ffffffffffffffffffffffffffffffffffffffff1673ffffffffffffffffffffffffffffffffffffffff168152602001908152602001600020549050919050565b610baa611315565b73ffffffffffffffffffffffffffffffffffffffff16610bc8610c2a565b73ffffffffffffffffffffffffffffffffffffffff1614610c1e576040517f08c379a0000000000000000000000000000000000000000000000000000000008152600401610c15906136b0565b60405180910390fd5b610c28600061172e565b565b6000600660009054906101000a900473ffffffffffffffffffffffffffffffffffffffff16905090565b606060018054610c6390613ac1565b80601f0160208091040260200160405190810160405280929190818152602001828054610c8f90613ac1565b8015610cdc5780601f10610cb157610100808354040283529160200191610cdc565b820191906000526020600020905b815481529060010190602001808311610cbf57829003601f168201915b5050505050905090565b610cee611315565b73ffffffffffffffffffffffffffffffffffffffff168273ffffffffffffffffffffffffffffffffffffffff161415610d5c576040517f08c379a0000000000000000000000000000000000000000000000000000000008152600401610d53906135d0565b60405180910390fd5b8060056000610d69611315565b73ffffffffffffffffffffffffffffffffffffffff1673ffffffffffffffffffffffffffffffffffffffff16815260200190815260200160002060008473ffffffffffffffffffffffffffffffffffffffff1673ffffffffffffffffffffffffffffffffffffffff16815260200190815260200160002060006101000a81548160ff0219169083151502179055508173ffffffffffffffffffffffffffffffffffffffff16610e16611315565b73ffffffffffffffffffffffffffffffffffffffff167f17307eab39ab6107e8899845ad3d59bd9653f200f220920489ca2b5937696c3183604051610e5b9190613513565b60405180910390a35050565b610e78610e72611315565b836113d6565b610eb7576040517f08c379a0000000000000000000000000000000000000000000000000000000008152600401610eae90613730565b60405180910390fd5b610ec3848484846117f4565b50505050565b60606000610ee2600884610edd9190613b3c565b611850565b90506000610efb600885610ef6919061394c565b611850565b90506000600a60008681526020019081526020016000205490506000610f5984846009806009808a8a610f2d8b611850565b604051602001610f45999897969594939291906132e5565b6040516020818303038152906040526119fd565b9050600081604051602001610f6e919061342a565b60405160208183030381529060405290508095505050505050919050565b62ffffff821115610fd2576040517f08c379a0000000000000000000000000000000000000000000000000000000008152600401610fc9906136f0565b60405180910390fd5b3373ffffffffffffffffffffffffffffffffffffffff16610ff282610a38565b73ffffffffffffffffffffffffffffffffffffffff1614611048576040517f08c379a000000000000000000000000000000000000000000000000000000000815260040161103f90613770565b60405180910390fd5b81600a6000838152602001908152602001600020819055507f31f3cf90b477045b7638a423ab54cb6ec05bc5d836722c65b9ff178072c460f381836040516110919291906137ab565b60405180910390a15050565b6000600560008473ffffffffffffffffffffffffffffffffffffffff1673ffffffffffffffffffffffffffffffffffffffff16815260200190815260200160002060008373ffffffffffffffffffffffffffffffffffffffff1673ffffffffffffffffffffffffffffffffffffffff16815260200190815260200160002060009054906101000a900460ff16905092915050565b611139611315565b73ffffffffffffffffffffffffffffffffffffffff16611157610c2a565b73ffffffffffffffffffffffffffffffffffffffff16146111ad576040517f08c379a00000000000000000000000000000000000000000000000000000000081526004016111a4906136b0565b60405180910390fd5b600073ffffffffffffffffffffffffffffffffffffffff168173ffffffffffffffffffffffffffffffffffffffff16141561121d576040517f08c379a000000000000000000000000000000000000000000000000000000000815260040161121490613570565b60405180910390fd5b6112268161172e565b50565b6001816000016000828254019250508190555050565b60007f01ffc9a7000000000000000000000000000000000000000000000000000000007bffffffffffffffffffffffffffffffffffffffffffffffffffffffff1916827bffffffffffffffffffffffffffffffffffffffffffffffffffffffff1916149050919050565b60008073ffffffffffffffffffffffffffffffffffffffff166002600084815260200190815260200160002060009054906101000a900473ffffffffffffffffffffffffffffffffffffffff1673ffffffffffffffffffffffffffffffffffffffff1614159050919050565b600033905090565b816004600083815260200190815260200160002060006101000a81548173ffffffffffffffffffffffffffffffffffffffff021916908373ffffffffffffffffffffffffffffffffffffffff160217905550808273ffffffffffffffffffffffffffffffffffffffff1661139083610a38565b73ffffffffffffffffffffffffffffffffffffffff167f8c5be1e5ebec7d5bd14f71427d1e84f3dd0314c0f7b2291e5b200ac8c7c3b92560405160405180910390a45050565b60006113e1826112a9565b611420576040517f08c379a0000000000000000000000000000000000000000000000000000000008152600401611417906135f0565b60405180910390fd5b600061142b83610a38565b90508073ffffffffffffffffffffffffffffffffffffffff168473ffffffffffffffffffffffffffffffffffffffff16148061149a57508373ffffffffffffffffffffffffffffffffffffffff166114828461057e565b73ffffffffffffffffffffffffffffffffffffffff16145b806114ab57506114aa818561109d565b5b91505092915050565b8273ffffffffffffffffffffffffffffffffffffffff166114d482610a38565b73ffffffffffffffffffffffffffffffffffffffff161461152a576040517f08c379a0000000000000000000000000000000000000000000000000000000008152600401611521906136d0565b60405180910390fd5b600073ffffffffffffffffffffffffffffffffffffffff168273ffffffffffffffffffffffffffffffffffffffff16141561159a576040517f08c379a0000000000000000000000000000000000000000000000000000000008152600401611591906135b0565b60405180910390fd5b6115a5838383611bbb565b6115b060008261131d565b6001600360008573ffffffffffffffffffffffffffffffffffffffff1673ffffffffffffffffffffffffffffffffffffffff168152602001908152602001600020600082825461160091906139d7565b925050819055506001600360008473ffffffffffffffffffffffffffffffffffffffff1673ffffffffffffffffffffffffffffffffffffffff168152602001908152602001600020600082825461165791906138f6565b92505081905550816002600083815260200190815260200160002060006101000a81548173ffffffffffffffffffffffffffffffffffffffff021916908373ffffffffffffffffffffffffffffffffffffffff160217905550808273ffffffffffffffffffffffffffffffffffffffff168473ffffffffffffffffffffffffffffffffffffffff167fddf252ad1be2c89b69c2b068fc378daa952ba7f163c4a11628f55a4df523b3ef60405160405180910390a4505050565b61172a828260405180602001604052806000815250611bc0565b5050565b6000600660009054906101000a900473ffffffffffffffffffffffffffffffffffffffff16905081600660006101000a81548173ffffffffffffffffffffffffffffffffffffffff021916908373ffffffffffffffffffffffffffffffffffffffff1602179055508173ffffffffffffffffffffffffffffffffffffffff168173ffffffffffffffffffffffffffffffffffffffff167f8be0079c531659141344cd1fd0a4f28419497f9722a3daafe3b4186f6b6457e060405160405180910390a35050565b6117ff8484846114b4565b61180b84848484611c1b565b61184a576040517f08c379a000000000000000000000000000000000000000000000000000000000815260040161184190613550565b60405180910390fd5b50505050565b60606000821415611898576040518060400160405280600181526020017f300000000000000000000000000000000000000000000000000000000000000081525090506119f8565b600082905060005b600082146118ca5780806118b390613af3565b915050600a826118c3919061394c565b91506118a0565b60008167ffffffffffffffff81111561190c577f4e487b7100000000000000000000000000000000000000000000000000000000600052604160045260246000fd5b6040519080825280601f01601f19166020018201604052801561193e5781602001600182028036833780820191505090505b5090505b600085146119f15760018261195791906139d7565b9150600a856119669190613b3c565b603061197291906138f6565b60f81b8183815181106119ae577f4e487b7100000000000000000000000000000000000000000000000000000000600052603260045260246000fd5b60200101907effffffffffffffffffffffffffffffffffffffffffffffffffffffffffffff1916908160001a905350600a856119ea919061394c565b9450611942565b8093505050505b919050565b60606000825190506000811415611a265760405180602001604052806000815250915050611bb6565b60006003600283611a3791906138f6565b611a41919061394c565b6004611a4d919061397d565b90506000602082611a5e91906138f6565b67ffffffffffffffff811115611a9d577f4e487b7100000000000000000000000000000000000000000000000000000000600052604160045260246000fd5b6040519080825280601f01601f191660200182016040528015611acf5781602001600182028036833780820191505090505b5090506000604051806060016040528060408152602001613c97604091399050600181016020830160005b86811015611b735760038101905062ffffff818a015116603f8160121c168401518060081b905060ff603f83600c1c1686015116810190508060081b905060ff603f8360061c1686015116810190508060081b905060ff603f831686015116810190508060e01b90508084526004840193505050611afa565b506003860660018114611b8d5760028114611b9d57611ba8565b613d3d60f01b6002830352611ba8565b603d60f81b60018303525b508484525050819450505050505b919050565b505050565b611bca8383611db2565b611bd76000848484611c1b565b611c16576040517f08c379a0000000000000000000000000000000000000000000000000000000008152600401611c0d90613550565b60405180910390fd5b505050565b6000611c3c8473ffffffffffffffffffffffffffffffffffffffff16611f80565b15611da5578373ffffffffffffffffffffffffffffffffffffffff1663150b7a02611c65611315565b8786866040518563ffffffff1660e01b8152600401611c879493929190613467565b602060405180830381600087803b158015611ca157600080fd5b505af1925050508015611cd257506040513d601f19601f82011682018060405250810190611ccf9190612376565b60015b611d55573d8060008114611d02576040519150601f19603f3d011682016040523d82523d6000602084013e611d07565b606091505b50600081511415611d4d576040517f08c379a0000000000000000000000000000000000000000000000000000000008152600401611d4490613550565b60405180910390fd5b805181602001fd5b63150b7a0260e01b7bffffffffffffffffffffffffffffffffffffffffffffffffffffffff1916817bffffffffffffffffffffffffffffffffffffffffffffffffffffffff191614915050611daa565b600190505b949350505050565b600073ffffffffffffffffffffffffffffffffffffffff168273ffffffffffffffffffffffffffffffffffffffff161415611e22576040517f08c379a0000000000000000000000000000000000000000000000000000000008152600401611e1990613670565b60405180910390fd5b611e2b816112a9565b15611e6b576040517f08c379a0000000000000000000000000000000000000000000000000000000008152600401611e6290613590565b60405180910390fd5b611e7760008383611bbb565b6001600360008473ffffffffffffffffffffffffffffffffffffffff1673ffffffffffffffffffffffffffffffffffffffff1681526020019081526020016000206000828254611ec791906138f6565b92505081905550816002600083815260200190815260200160002060006101000a81548173ffffffffffffffffffffffffffffffffffffffff021916908373ffffffffffffffffffffffffffffffffffffffff160217905550808273ffffffffffffffffffffffffffffffffffffffff16600073ffffffffffffffffffffffffffffffffffffffff167fddf252ad1be2c89b69c2b068fc378daa952ba7f163c4a11628f55a4df523b3ef60405160405180910390a45050565b600080823b905060008111915050919050565b6040518060600160405280600073ffffffffffffffffffffffffffffffffffffffff16815260200160008152602001600081525090565b828054611fd690613ac1565b90600052602060002090601f016020900481019282611ff8576000855561203f565b82601f1061201157805160ff191683800117855561203f565b8280016001018555821561203f579182015b8281111561203e578251825591602001919060010190612023565b5b50905061204c9190612050565b5090565b5b80821115612069576000816000905550600101612051565b5090565b600061208061207b84613805565b6137d4565b90508281526020810184848401111561209857600080fd5b6120a3848285613a7f565b509392505050565b60006120be6120b984613835565b6137d4565b9050828152602081018484840111156120d657600080fd5b6120e1848285613a7f565b509392505050565b6000813590506120f881613c3a565b92915050565b60008135905061210d81613c51565b92915050565b60008135905061212281613c68565b92915050565b60008151905061213781613c68565b92915050565b600082601f83011261214e57600080fd5b813561215e84826020860161206d565b91505092915050565b600082601f83011261217857600080fd5b81356121888482602086016120ab565b91505092915050565b6000813590506121a081613c7f565b92915050565b6000602082840312156121b857600080fd5b60006121c6848285016120e9565b91505092915050565b600080604083850312156121e257600080fd5b60006121f0858286016120e9565b9250506020612201858286016120e9565b9150509250929050565b60008060006060848603121561222057600080fd5b600061222e868287016120e9565b935050602061223f868287016120e9565b925050604061225086828701612191565b9150509250925092565b6000806000806080858703121561227057600080fd5b600061227e878288016120e9565b945050602061228f878288016120e9565b93505060406122a087828801612191565b925050606085013567ffffffffffffffff8111156122bd57600080fd5b6122c98782880161213d565b91505092959194509250565b600080604083850312156122e857600080fd5b60006122f6858286016120e9565b9250506020612307858286016120fe565b9150509250929050565b6000806040838503121561232457600080fd5b6000612332858286016120e9565b925050602061234385828601612191565b9150509250929050565b60006020828403121561235f57600080fd5b600061236d84828501612113565b91505092915050565b60006020828403121561238857600080fd5b600061239684828501612128565b91505092915050565b6000602082840312156123b157600080fd5b600082013567ffffffffffffffff8111156123cb57600080fd5b6123d784828501612167565b91505092915050565b6000602082840312156123f257600080fd5b600061240084828501612191565b91505092915050565b6000806040838503121561241c57600080fd5b600061242a85828601612191565b925050602061243b85828601612191565b9150509250929050565b60006124518383613285565b60608301905092915050565b61246681613a0b565b82525050565b61247581613a0b565b82525050565b60006124868261388a565b61249081856138b8565b935061249b83613865565b8060005b838110156124cc5781516124b38882612445565b97506124be836138ab565b92505060018101905061249f565b5085935050505092915050565b6124e281613a1d565b82525050565b60006124f382613895565b6124fd81856138c9565b935061250d818560208601613a8e565b61251681613c29565b840191505092915050565b600061252c826138a0565b61253681856138da565b9350612546818560208601613a8e565b61254f81613c29565b840191505092915050565b6000612565826138a0565b61256f81856138eb565b935061257f818560208601613a8e565b80840191505092915050565b6000815461259881613ac1565b6125a281866138eb565b945060018216600081146125bd57600181146125ce57612601565b60ff19831686528186019350612601565b6125d785613875565b60005b838110156125f9578154818901526001820191506020810190506125da565b838801955050505b50505092915050565b60006126176040836138eb565b91507f7b2022646973706c61795f74797065223a20226e756d626572222c202022747260008301527f6169745f74797065223a20225920636f6f7264222c20202276616c7565223a206020830152604082019050919050565b600061267d6002836138eb565b91507f7d2c0000000000000000000000000000000000000000000000000000000000006000830152600282019050919050565b60006126bd6010836138eb565b91507f7b226e616d65223a2022506978656c20000000000000000000000000000000006000830152601082019050919050565b60006126fd6032836138da565b91507f4552433732313a207472616e7366657220746f206e6f6e20455243373231526560008301527f63656976657220696d706c656d656e74657200000000000000000000000000006020830152604082019050919050565b60006127636026836138da565b91507f4f776e61626c653a206e6577206f776e657220697320746865207a65726f206160008301527f64647265737300000000000000000000000000000000000000000000000000006020830152604082019050919050565b60006127c9603e836138eb565b91507f7b2022646973706c61795f74797065223a20226e756d626572222c202022747260008301527f6169745f74797065223a2022436f6c6f72222c20202276616c7565223a2000006020830152603e82019050919050565b600061282f601c836138da565b91507f4552433732313a20746f6b656e20616c7265616479206d696e746564000000006000830152602082019050919050565b600061286f6001836138eb565b91507f2c000000000000000000000000000000000000000000000000000000000000006000830152600182019050919050565b60006128af6024836138da565b91507f4552433732313a207472616e7366657220746f20746865207a65726f2061646460008301527f72657373000000000000000000000000000000000000000000000000000000006020830152604082019050919050565b60006129156019836138da565b91507f4552433732313a20617070726f766520746f2063616c6c6572000000000000006000830152602082019050919050565b6000612955600b836138eb565b91507f2f6170692f696d616765220000000000000000000000000000000000000000006000830152600b82019050919050565b60006129956040836138eb565b91507f7b2022646973706c61795f74797065223a20226e756d626572222c202022747260008301527f6169745f74797065223a20225820636f6f7264222c20202276616c7565223a206020830152604082019050919050565b60006129fb602c836138da565b91507f4552433732313a206f70657261746f7220717565727920666f72206e6f6e657860008301527f697374656e7420746f6b656e00000000000000000000000000000000000000006020830152604082019050919050565b6000612a62610148836138eb565b91507f2c20226465736372697074696f6e223a2022506978696d696e7420697320612060008301527f7069656365206f6620636f6c6c61626f72617469766520617274776f726b207460208301527f686174206c69766573206f6e2074686520457468657265756d2f506f6c79676f60408301527f6e206e6574776f726b2e2045616368204e465420697320626f7468207468652060608301527f617274776f726b20697473656c6620616e64206f776e657273686970206f766560808301527f722031206f6620363420706978656c732074686174206d616b6520757020746860a08301527f6520776f726b2e204173206120706978656c206f776e657220796f752063616e60c08301527f2063686f6f73652074686520636f6c6f72206f6620796f757220706978656c2060e08301527f616e64206368616e676520697420617420616e792074696d652e20546f206d696101008301527f6e74206f72206d6f6469667920796f757220706978656c2c207669736974203c6101208301527f6120687265663d2700000000000000000000000000000000000000000000000061014083015261014882019050919050565b6000612c226013836138eb565b91507f2c202265787465726e616c5f75726c223a2022000000000000000000000000006000830152601382019050919050565b6000612c626038836138da565b91507f4552433732313a20617070726f76652063616c6c6572206973206e6f74206f7760008301527f6e6572206e6f7220617070726f76656420666f7220616c6c00000000000000006020830152604082019050919050565b6000612cc86001836138eb565b91507f22000000000000000000000000000000000000000000000000000000000000006000830152600182019050919050565b6000612d08602a836138da565b91507f4552433732313a2062616c616e636520717565727920666f7220746865207a6560008301527f726f2061646472657373000000000000000000000000000000000000000000006020830152604082019050919050565b6000612d6e6029836138da565b91507f4552433732313a206f776e657220717565727920666f72206e6f6e657869737460008301527f656e7420746f6b656e00000000000000000000000000000000000000000000006020830152604082019050919050565b6000612dd4600c836138eb565b91507f2c2022696d616765223a202200000000000000000000000000000000000000006000830152600c82019050919050565b6000612e146011836138eb565b91507f2c202261747472696275746573223a205b0000000000000000000000000000006000830152601182019050919050565b6000612e546020836138da565b91507f4552433732313a206d696e7420746f20746865207a65726f20616464726573736000830152602082019050919050565b6000612e946001836138eb565b91507f7d000000000000000000000000000000000000000000000000000000000000006000830152600182019050919050565b6000612ed46006836138eb565b91507f3c2f613e2e2200000000000000000000000000000000000000000000000000006000830152600682019050919050565b6000612f14602c836138da565b91507f4552433732313a20617070726f76656420717565727920666f72206e6f6e657860008301527f697374656e7420746f6b656e00000000000000000000000000000000000000006020830152604082019050919050565b6000612f7a6020836138da565b91507f4f776e61626c653a2063616c6c6572206973206e6f7420746865206f776e65726000830152602082019050919050565b6000612fba6029836138da565b91507f4552433732313a207472616e73666572206f6620746f6b656e2074686174206960008301527f73206e6f74206f776e00000000000000000000000000000000000000000000006020830152604082019050919050565b60006130206012836138da565b91507f436f6c6f72206f7574206f662072616e676500000000000000000000000000006000830152602082019050919050565b60006130606002836138eb565b91507f5d7d0000000000000000000000000000000000000000000000000000000000006000830152600282019050919050565b60006130a06021836138da565b91507f4552433732313a20617070726f76616c20746f2063757272656e74206f776e6560008301527f72000000000000000000000000000000000000000000000000000000000000006020830152604082019050919050565b6000613106601d836138eb565b91507f646174613a6170706c69636174696f6e2f6a736f6e3b6261736536342c0000006000830152601d82019050919050565b60006131466031836138da565b91507f4552433732313a207472616e736665722063616c6c6572206973206e6f74206f60008301527f776e6572206e6f7220617070726f7665640000000000000000000000000000006020830152604082019050919050565b60006131ac6014836138da565b91507f496e76616c696420746f6b656e206e756d6265720000000000000000000000006000830152602082019050919050565b60006131ec602e836138da565b91507f596f7520646f206e6f742068617665207065726d697373696f6e20746f20616c60008301527f746572207468697320706978656c0000000000000000000000000000000000006020830152604082019050919050565b60006132526002836138eb565b91507f273e0000000000000000000000000000000000000000000000000000000000006000830152600282019050919050565b60608201600082015161329b600085018261245d565b5060208201516132ae60208501826132c7565b5060408201516132c160408501826132c7565b50505050565b6132d081613a75565b82525050565b6132df81613a75565b82525050565b60006132f0826126b0565b91506132fc828c61255a565b915061330782612862565b9150613313828b61255a565b915061331e82612cbb565b915061332982612a54565b9150613335828a61258b565b915061334082613245565b915061334c828961258b565b915061335782612ec7565b915061336282612c15565b915061336e828861258b565b915061337982612cbb565b915061338482612dc7565b9150613390828761258b565b915061339b82612948565b91506133a682612e07565b91506133b182612988565b91506133bd828661255a565b91506133c882612670565b91506133d38261260a565b91506133df828561255a565b91506133ea82612670565b91506133f5826127bc565b9150613401828461255a565b915061340c82612e87565b915061341782613053565b91508190509a9950505050505050505050565b6000613435826130f9565b9150613441828461255a565b915081905092915050565b6000602082019050613461600083018461246c565b92915050565b600060808201905061347c600083018761246c565b613489602083018661246c565b61349660408301856132d6565b81810360608301526134a881846124e8565b905095945050505050565b60006060820190506134c8600083018661246c565b6134d560208301856132d6565b81810360408301526134e7818461247b565b9050949350505050565b6000602082019050818103600083015261350b818461247b565b905092915050565b600060208201905061352860008301846124d9565b92915050565b600060208201905081810360008301526135488184612521565b905092915050565b60006020820190508181036000830152613569816126f0565b9050919050565b6000602082019050818103600083015261358981612756565b9050919050565b600060208201905081810360008301526135a981612822565b9050919050565b600060208201905081810360008301526135c9816128a2565b9050919050565b600060208201905081810360008301526135e981612908565b9050919050565b60006020820190508181036000830152613609816129ee565b9050919050565b6000602082019050818103600083015261362981612c55565b9050919050565b6000602082019050818103600083015261364981612cfb565b9050919050565b6000602082019050818103600083015261366981612d61565b9050919050565b6000602082019050818103600083015261368981612e47565b9050919050565b600060208201905081810360008301526136a981612f07565b9050919050565b600060208201905081810360008301526136c981612f6d565b9050919050565b600060208201905081810360008301526136e981612fad565b9050919050565b6000602082019050818103600083015261370981613013565b9050919050565b6000602082019050818103600083015261372981613093565b9050919050565b6000602082019050818103600083015261374981613139565b9050919050565b600060208201905081810360008301526137698161319f565b9050919050565b60006020820190508181036000830152613789816131df565b9050919050565b60006020820190506137a560008301846132d6565b92915050565b60006040820190506137c060008301856132d6565b6137cd60208301846132d6565b9392505050565b6000604051905081810181811067ffffffffffffffff821117156137fb576137fa613bfa565b5b8060405250919050565b600067ffffffffffffffff8211156138205761381f613bfa565b5b601f19601f8301169050602081019050919050565b600067ffffffffffffffff8211156138505761384f613bfa565b5b601f19601f8301169050602081019050919050565b6000819050602082019050919050565b60008190508160005260206000209050919050565b600081519050919050565b600081519050919050565b600081519050919050565b6000602082019050919050565b600082825260208201905092915050565b600082825260208201905092915050565b600082825260208201905092915050565b600081905092915050565b600061390182613a75565b915061390c83613a75565b9250827fffffffffffffffffffffffffffffffffffffffffffffffffffffffffffffffff0382111561394157613940613b6d565b5b828201905092915050565b600061395782613a75565b915061396283613a75565b92508261397257613971613b9c565b5b828204905092915050565b600061398882613a75565b915061399383613a75565b9250817fffffffffffffffffffffffffffffffffffffffffffffffffffffffffffffffff04831182151516156139cc576139cb613b6d565b5b828202905092915050565b60006139e282613a75565b91506139ed83613a75565b925082821015613a00576139ff613b6d565b5b828203905092915050565b6000613a1682613a55565b9050919050565b60008115159050919050565b60007fffffffff0000000000000000000000000000000000000000000000000000000082169050919050565b600073ffffffffffffffffffffffffffffffffffffffff82169050919050565b6000819050919050565b82818337600083830152505050565b60005b83811015613aac578082015181840152602081019050613a91565b83811115613abb576000848401525b50505050565b60006002820490506001821680613ad957607f821691505b60208210811415613aed57613aec613bcb565b5b50919050565b6000613afe82613a75565b91507fffffffffffffffffffffffffffffffffffffffffffffffffffffffffffffffff821415613b3157613b30613b6d565b5b600182019050919050565b6000613b4782613a75565b9150613b5283613a75565b925082613b6257613b61613b9c565b5b828206905092915050565b7f4e487b7100000000000000000000000000000000000000000000000000000000600052601160045260246000fd5b7f4e487b7100000000000000000000000000000000000000000000000000000000600052601260045260246000fd5b7f4e487b7100000000000000000000000000000000000000000000000000000000600052602260045260246000fd5b7f4e487b7100000000000000000000000000000000000000000000000000000000600052604160045260246000fd5b6000601f19601f8301169050919050565b613c4381613a0b565b8114613c4e57600080fd5b50565b613c5a81613a1d565b8114613c6557600080fd5b50565b613c7181613a29565b8114613c7c57600080fd5b50565b613c8881613a75565b8114613c9357600080fd5b5056fe4142434445464748494a4b4c4d4e4f505152535455565758595a6162636465666768696a6b6c6d6e6f707172737475767778797a303132333435363738392b2fa264697066735822122042550716852e695d4deeeb464ae133ba8dcf7749259f2f5f32d8ae7840bbc3a164736f6c63430008000033",
  "linkReferences": {},
  "deployedLinkReferences": {}
}